{
  "contractName": "Staking",
  "abi": [
    {
      "inputs": [
        {
          "internalType": "address",
          "name": "_tBit",
          "type": "address"
        },
        {
          "internalType": "address",
          "name": "_lpToken",
          "type": "address"
        }
      ],
      "stateMutability": "nonpayable",
      "type": "constructor"
    },
    {
      "anonymous": false,
      "inputs": [
        {
          "indexed": true,
          "internalType": "address",
          "name": "previousOwner",
          "type": "address"
        },
        {
          "indexed": true,
          "internalType": "address",
          "name": "newOwner",
          "type": "address"
        }
      ],
      "name": "OwnershipTransferred",
      "type": "event"
    },
    {
      "anonymous": false,
      "inputs": [
        {
          "indexed": true,
          "internalType": "address",
          "name": "sender",
          "type": "address"
        },
        {
          "indexed": false,
          "internalType": "uint256",
          "name": "amount",
          "type": "uint256"
        },
        {
          "indexed": false,
          "internalType": "bool",
          "name": "isLpToken",
          "type": "bool"
        }
      ],
      "name": "Staking",
      "type": "event"
    },
    {
      "inputs": [],
      "name": "REWARD_PER_DAY",
      "outputs": [
        {
          "internalType": "uint256",
          "name": "",
          "type": "uint256"
        }
      ],
      "stateMutability": "view",
      "type": "function",
      "constant": true
    },
    {
      "inputs": [],
      "name": "SECONDS_IN_A_DAY",
      "outputs": [
        {
          "internalType": "uint256",
          "name": "",
          "type": "uint256"
        }
      ],
      "stateMutability": "view",
      "type": "function",
      "constant": true
    },
    {
      "inputs": [],
      "name": "STAKING_AMOUNT_MIN",
      "outputs": [
        {
          "internalType": "uint256",
          "name": "",
          "type": "uint256"
        }
      ],
      "stateMutability": "view",
      "type": "function",
      "constant": true
    },
    {
      "inputs": [],
      "name": "STAKING_DAYS_MIN",
      "outputs": [
        {
          "internalType": "uint256",
          "name": "",
          "type": "uint256"
        }
      ],
      "stateMutability": "view",
      "type": "function",
      "constant": true
    },
    {
      "inputs": [],
      "name": "STAKING_DAYS_REWARD",
      "outputs": [
        {
          "internalType": "uint256",
          "name": "",
          "type": "uint256"
        }
      ],
      "stateMutability": "view",
      "type": "function",
      "constant": true
    },
    {
      "inputs": [],
      "name": "VESTING_AMOUNT",
      "outputs": [
        {
          "internalType": "uint256",
          "name": "",
          "type": "uint256"
        }
      ],
      "stateMutability": "view",
      "type": "function",
      "constant": true
    },
    {
      "inputs": [],
      "name": "VESTING_PERIOD",
      "outputs": [
        {
          "internalType": "uint256",
          "name": "",
          "type": "uint256"
        }
      ],
      "stateMutability": "view",
      "type": "function",
      "constant": true
    },
    {
      "inputs": [],
      "name": "lpToken",
      "outputs": [
        {
          "internalType": "address",
          "name": "",
          "type": "address"
        }
      ],
      "stateMutability": "view",
      "type": "function",
      "constant": true
    },
    {
      "inputs": [],
      "name": "owner",
      "outputs": [
        {
          "internalType": "address",
          "name": "",
          "type": "address"
        }
      ],
      "stateMutability": "view",
      "type": "function",
      "constant": true
    },
    {
      "inputs": [],
      "name": "renounceOwnership",
      "outputs": [],
      "stateMutability": "nonpayable",
      "type": "function"
    },
    {
      "inputs": [],
      "name": "tBit",
      "outputs": [
        {
          "internalType": "address",
          "name": "",
          "type": "address"
        }
      ],
      "stateMutability": "view",
      "type": "function",
      "constant": true
    },
    {
      "inputs": [
        {
          "internalType": "bool",
          "name": "",
          "type": "bool"
        }
      ],
      "name": "totalStakers",
      "outputs": [
        {
          "internalType": "uint256",
          "name": "",
          "type": "uint256"
        }
      ],
      "stateMutability": "view",
      "type": "function",
      "constant": true
    },
    {
      "inputs": [
        {
          "internalType": "bool",
          "name": "",
          "type": "bool"
        }
      ],
      "name": "totalStakingAmount",
      "outputs": [
        {
          "internalType": "uint256",
          "name": "",
          "type": "uint256"
        }
      ],
      "stateMutability": "view",
      "type": "function",
      "constant": true
    },
    {
      "inputs": [
        {
          "internalType": "address",
          "name": "newOwner",
          "type": "address"
        }
      ],
      "name": "transferOwnership",
      "outputs": [],
      "stateMutability": "nonpayable",
      "type": "function"
    },
    {
      "inputs": [
        {
          "internalType": "address",
          "name": "",
          "type": "address"
        },
        {
          "internalType": "bool",
          "name": "",
          "type": "bool"
        }
      ],
      "name": "userInfo",
      "outputs": [
        {
          "internalType": "uint256",
          "name": "amount",
          "type": "uint256"
        },
        {
          "internalType": "uint256",
          "name": "time",
          "type": "uint256"
        },
        {
          "internalType": "uint256",
          "name": "rewards",
          "type": "uint256"
        },
        {
          "internalType": "uint256",
          "name": "claimed",
          "type": "uint256"
        }
      ],
      "stateMutability": "view",
      "type": "function",
      "constant": true
    },
    {
      "inputs": [],
      "name": "vestingStart",
      "outputs": [
        {
          "internalType": "uint256",
          "name": "",
          "type": "uint256"
        }
      ],
      "stateMutability": "view",
      "type": "function",
      "constant": true
    },
    {
      "inputs": [
        {
          "internalType": "uint256",
          "name": "amount",
          "type": "uint256"
        },
        {
          "internalType": "bool",
          "name": "isLpToken",
          "type": "bool"
        }
      ],
      "name": "stake",
      "outputs": [],
      "stateMutability": "nonpayable",
      "type": "function"
    },
    {
      "inputs": [
        {
          "internalType": "bool",
          "name": "isLpToken",
          "type": "bool"
        }
      ],
      "name": "checkReward",
      "outputs": [
        {
          "internalType": "uint256",
          "name": "",
          "type": "uint256"
        }
      ],
      "stateMutability": "view",
      "type": "function",
      "constant": true
    },
    {
      "inputs": [
        {
          "internalType": "bool",
          "name": "isLpToken",
          "type": "bool"
        }
      ],
      "name": "getPending",
      "outputs": [
        {
          "internalType": "uint256",
          "name": "",
          "type": "uint256"
        }
      ],
      "stateMutability": "view",
      "type": "function",
      "constant": true
    },
    {
      "inputs": [
        {
          "internalType": "bool",
          "name": "isLpToken",
          "type": "bool"
        }
      ],
      "name": "claim",
      "outputs": [],
      "stateMutability": "nonpayable",
      "type": "function"
    },
    {
      "inputs": [
        {
          "internalType": "uint256",
          "name": "amount",
          "type": "uint256"
        },
        {
          "internalType": "bool",
          "name": "isLpToken",
          "type": "bool"
        }
      ],
      "name": "unstake",
      "outputs": [],
      "stateMutability": "nonpayable",
      "type": "function"
    },
    {
      "inputs": [
        {
          "internalType": "uint256",
          "name": "amount",
          "type": "uint256"
        },
        {
          "internalType": "bool",
          "name": "isLpToken",
          "type": "bool"
        }
      ],
      "name": "withdrawToken",
      "outputs": [],
      "stateMutability": "nonpayable",
      "type": "function"
    },
    {
      "inputs": [
        {
          "internalType": "address",
          "name": "_tBit",
          "type": "address"
        }
      ],
      "name": "setTBIT",
      "outputs": [],
      "stateMutability": "nonpayable",
      "type": "function"
    },
    {
      "inputs": [
        {
          "internalType": "address",
          "name": "_lpToken",
          "type": "address"
        }
      ],
      "name": "setLPToken",
      "outputs": [],
      "stateMutability": "nonpayable",
      "type": "function"
    },
    {
      "inputs": [
        {
          "internalType": "address",
          "name": "to",
          "type": "address"
        }
      ],
      "name": "withdrawLiquidity",
      "outputs": [],
      "stateMutability": "nonpayable",
      "type": "function"
    }
  ],
  "bytecode": "0x608060405234801561001057600080fd5b5060405161215e38038061215e8339818101604052604081101561003357600080fd5b810190808051906020019092919080519060200190929190505050600061005e61018c60201b60201c565b9050806000806101000a81548173ffffffffffffffffffffffffffffffffffffffff021916908373ffffffffffffffffffffffffffffffffffffffff1602179055508073ffffffffffffffffffffffffffffffffffffffff16600073ffffffffffffffffffffffffffffffffffffffff167f8be0079c531659141344cd1fd0a4f28419497f9722a3daafe3b4186f6b6457e060405160405180910390a35081600160006101000a81548173ffffffffffffffffffffffffffffffffffffffff021916908373ffffffffffffffffffffffffffffffffffffffff16021790555080600260006101000a81548173ffffffffffffffffffffffffffffffffffffffff021916908373ffffffffffffffffffffffffffffffffffffffff160217905550436003819055505050610194565b600033905090565b611fbb806101a36000396000f3fe608060405234801561001057600080fd5b50600436106101735760003560e01c8063715018a6116100de5780639ebea88c11610097578063b76fe8c011610071578063b76fe8c0146105c1578063f2fde38b14610605578063f6819cd414610649578063f9cfa06f1461066757610173565b80639ebea88c14610513578063a00ddc601461054d578063abe50f191461058757610173565b8063715018a6146104215780638141feb31461042b57806382cd194d146104495780638da5cb5b1461047d5780639b3b24ba146104b15780639d67ac37146104cf57610173565b8063456f7bce11610130578063456f7bce1461028a57806350d4aa72146103035780635488c247146103215780635983e7b2146103655780635fcbd285146103a95780636a678a9c146103dd57610173565b80630197d972146101785780631a47fe1c14610196578063254800d4146101da5780632cacc5f1146101f85780632d81a78e1461023c5780634340c9141461026c575b600080fd5b610180610685565b6040518082815260200191505060405180910390f35b6101d8600480360360208110156101ac57600080fd5b81019080803573ffffffffffffffffffffffffffffffffffffffff16906020019092919050505061068a565b005b6101e2610796565b6040518082815260200191505060405180910390f35b6102266004803603602081101561020e57600080fd5b8101908080351515906020019092919050505061079c565b6040518082815260200191505060405180910390f35b61026a6004803603602081101561025257600080fd5b810190808035151590602001909291905050506107b4565b005b6102746107c1565b6040518082815260200191505060405180910390f35b6102d8600480360360408110156102a057600080fd5b81019080803573ffffffffffffffffffffffffffffffffffffffff1690602001909291908035151590602001909291905050506107c6565b6040518085815260200184815260200183815260200182815260200194505050505060405180910390f35b61030b610803565b6040518082815260200191505060405180910390f35b61034f6004803603602081101561033757600080fd5b81019080803515159060200190929190505050610808565b6040518082815260200191505060405180910390f35b6103936004803603602081101561037b57600080fd5b8101908080351515906020019092919050505061081b565b6040518082815260200191505060405180910390f35b6103b1610833565b604051808273ffffffffffffffffffffffffffffffffffffffff16815260200191505060405180910390f35b61041f600480360360208110156103f357600080fd5b81019080803573ffffffffffffffffffffffffffffffffffffffff169060200190929190505050610859565b005b610429610965565b005b610433610aeb565b6040518082815260200191505060405180910390f35b610451610af6565b604051808273ffffffffffffffffffffffffffffffffffffffff16815260200191505060405180910390f35b610485610b1c565b604051808273ffffffffffffffffffffffffffffffffffffffff16815260200191505060405180910390f35b6104b9610b45565b6040518082815260200191505060405180910390f35b610511600480360360208110156104e557600080fd5b81019080803573ffffffffffffffffffffffffffffffffffffffff169060200190929190505050610b53565b005b61054b6004803603604081101561052957600080fd5b8101908080359060200190929190803515159060200190929190505050610d58565b005b6105856004803603604081101561056357600080fd5b810190808035906020019092919080351515906020019092919050505061112e565b005b6105bf6004803603604081101561059d57600080fd5b81019080803590602001909291908035151590602001909291905050506113a4565b005b6105ef600480360360208110156105d757600080fd5b810190808035151590602001909291905050506117bc565b6040518082815260200191505060405180910390f35b6106476004803603602081101561061b57600080fd5b81019080803573ffffffffffffffffffffffffffffffffffffffff1690602001909291905050506117cf565b005b6106516118a3565b6040518082815260200191505060405180910390f35b61066f6118af565b6040518082815260200191505060405180910390f35b603c81565b6106926118b4565b73ffffffffffffffffffffffffffffffffffffffff1660008054906101000a900473ffffffffffffffffffffffffffffffffffffffff1673ffffffffffffffffffffffffffffffffffffffff1614610752576040517f08c379a00000000000000000000000000000000000000000000000000000000081526004018080602001828103825260208152602001807f4f776e61626c653a2063616c6c6572206973206e6f7420746865206f776e657281525060200191505060405180910390fd5b80600160006101000a81548173ffffffffffffffffffffffffffffffffffffffff021916908373ffffffffffffffffffffffffffffffffffffffff16021790555050565b60035481565b60046020528060005260406000206000915090505481565b6107be33826118bc565b50565b601e81565b6006602052816000526040600020602052806000526040600020600091509150508060000154908060010154908060020154908060030154905084565b600781565b60006108143383611a96565b9050919050565b60056020528060005260406000206000915090505481565b600260009054906101000a900473ffffffffffffffffffffffffffffffffffffffff1681565b6108616118b4565b73ffffffffffffffffffffffffffffffffffffffff1660008054906101000a900473ffffffffffffffffffffffffffffffffffffffff1673ffffffffffffffffffffffffffffffffffffffff1614610921576040517f08c379a00000000000000000000000000000000000000000000000000000000081526004018080602001828103825260208152602001807f4f776e61626c653a2063616c6c6572206973206e6f7420746865206f776e657281525060200191505060405180910390fd5b80600260006101000a81548173ffffffffffffffffffffffffffffffffffffffff021916908373ffffffffffffffffffffffffffffffffffffffff16021790555050565b61096d6118b4565b73ffffffffffffffffffffffffffffffffffffffff1660008054906101000a900473ffffffffffffffffffffffffffffffffffffffff1673ffffffffffffffffffffffffffffffffffffffff1614610a2d576040517f08c379a00000000000000000000000000000000000000000000000000000000081526004018080602001828103825260208152602001807f4f776e61626c653a2063616c6c6572206973206e6f7420746865206f776e657281525060200191505060405180910390fd5b600073ffffffffffffffffffffffffffffffffffffffff1660008054906101000a900473ffffffffffffffffffffffffffffffffffffffff1673ffffffffffffffffffffffffffffffffffffffff167f8be0079c531659141344cd1fd0a4f28419497f9722a3daafe3b4186f6b6457e060405160405180910390a360008060006101000a81548173ffffffffffffffffffffffffffffffffffffffff021916908373ffffffffffffffffffffffffffffffffffffffff160217905550565b66b1a2bc2ec5000081565b600160009054906101000a900473ffffffffffffffffffffffffffffffffffffffff1681565b60008060009054906101000a900473ffffffffffffffffffffffffffffffffffffffff16905090565b69152d02c7e14af680000081565b610b5b6118b4565b73ffffffffffffffffffffffffffffffffffffffff1660008054906101000a900473ffffffffffffffffffffffffffffffffffffffff1673ffffffffffffffffffffffffffffffffffffffff1614610c1b576040517f08c379a00000000000000000000000000000000000000000000000000000000081526004018080602001828103825260208152602001807f4f776e61626c653a2063616c6c6572206973206e6f7420746865206f776e657281525060200191505060405180910390fd5b436001603c02600354011115610c7c576040517f08c379a0000000000000000000000000000000000000000000000000000000008152600401808060200182810382526025815260200180611f616025913960400191505060405180910390fd5b600160009054906101000a900473ffffffffffffffffffffffffffffffffffffffff1673ffffffffffffffffffffffffffffffffffffffff1663a9059cbb8269152d02c7e14af68000006040518363ffffffff1660e01b8152600401808373ffffffffffffffffffffffffffffffffffffffff16815260200182815260200192505050602060405180830381600087803b158015610d1957600080fd5b505af1158015610d2d573d6000803e3d6000fd5b505050506040513d6020811015610d4357600080fd5b81019080805190602001909291905050505050565b6000600660003373ffffffffffffffffffffffffffffffffffffffff1673ffffffffffffffffffffffffffffffffffffffff16815260200190815260200160002060008315151515815260200190815260200160002090508281600001541015610e2a576040517f08c379a000000000000000000000000000000000000000000000000000000000815260040180806020018281038252601c8152602001807f5374616b696e673a20496e73756666696369656e7420416d6f756e740000000081525060200191505060405180910390fd5b4360016007028260010154011115610eaa576040517f08c379a000000000000000000000000000000000000000000000000000000000815260040180806020018281038252601e8152602001807f5374616b696e673a2043616e206e6f7420756e7374616b696e6720796574000081525060200191505060405180910390fd5b8115610f8457600260009054906101000a900473ffffffffffffffffffffffffffffffffffffffff1673ffffffffffffffffffffffffffffffffffffffff1663a9059cbb33856040518363ffffffff1660e01b8152600401808373ffffffffffffffffffffffffffffffffffffffff16815260200182815260200192505050602060405180830381600087803b158015610f4357600080fd5b505af1158015610f57573d6000803e3d6000fd5b505050506040513d6020811015610f6d57600080fd5b810190808051906020019092919050505050611054565b600160009054906101000a900473ffffffffffffffffffffffffffffffffffffffff1673ffffffffffffffffffffffffffffffffffffffff1663a9059cbb33856040518363ffffffff1660e01b8152600401808373ffffffffffffffffffffffffffffffffffffffff16815260200182815260200192505050602060405180830381600087803b15801561101757600080fd5b505af115801561102b573d6000803e3d6000fd5b505050506040513d602081101561104157600080fd5b8101908080519060200190929190505050505b61105e33836118bc565b61108883600460008515151515815260200190815260200160002054611bc490919063ffffffff16565b6004600084151515158152602001908152602001600020819055506000600460008415151515815260200190815260200160002054141561110a576110ee6001600560008515151515815260200190815260200160002054611bc490919063ffffffff16565b6005600084151515158152602001908152602001600020819055505b611121838260000154611bc490919063ffffffff16565b8160000181905550505050565b6111366118b4565b73ffffffffffffffffffffffffffffffffffffffff1660008054906101000a900473ffffffffffffffffffffffffffffffffffffffff1673ffffffffffffffffffffffffffffffffffffffff16146111f6576040517f08c379a00000000000000000000000000000000000000000000000000000000081526004018080602001828103825260208152602001807f4f776e61626c653a2063616c6c6572206973206e6f7420746865206f776e657281525060200191505060405180910390fd5b80156112d057600260009054906101000a900473ffffffffffffffffffffffffffffffffffffffff1673ffffffffffffffffffffffffffffffffffffffff1663a9059cbb33846040518363ffffffff1660e01b8152600401808373ffffffffffffffffffffffffffffffffffffffff16815260200182815260200192505050602060405180830381600087803b15801561128f57600080fd5b505af11580156112a3573d6000803e3d6000fd5b505050506040513d60208110156112b957600080fd5b8101908080519060200190929190505050506113a0565b600160009054906101000a900473ffffffffffffffffffffffffffffffffffffffff1673ffffffffffffffffffffffffffffffffffffffff1663a9059cbb33846040518363ffffffff1660e01b8152600401808373ffffffffffffffffffffffffffffffffffffffff16815260200182815260200192505050602060405180830381600087803b15801561136357600080fd5b505af1158015611377573d6000803e3d6000fd5b505050506040513d602081101561138d57600080fd5b8101908080519060200190929190505050505b5050565b678ac7230489e80000821015611422576040517f08c379a000000000000000000000000000000000000000000000000000000000815260040180806020018281038252601f8152602001807f5374616b696e673a20496e76616c6964205374616b696e6720416d6f756e740081525060200191505060405180910390fd5b801561151a57600260009054906101000a900473ffffffffffffffffffffffffffffffffffffffff1673ffffffffffffffffffffffffffffffffffffffff166323b872dd3330856040518463ffffffff1660e01b8152600401808473ffffffffffffffffffffffffffffffffffffffff1681526020018373ffffffffffffffffffffffffffffffffffffffff1681526020018281526020019350505050602060405180830381600087803b1580156114d957600080fd5b505af11580156114ed573d6000803e3d6000fd5b505050506040513d602081101561150357600080fd5b810190808051906020019092919050505050611608565b600160009054906101000a900473ffffffffffffffffffffffffffffffffffffffff1673ffffffffffffffffffffffffffffffffffffffff166323b872dd3330856040518463ffffffff1660e01b8152600401808473ffffffffffffffffffffffffffffffffffffffff1681526020018373ffffffffffffffffffffffffffffffffffffffff1681526020018281526020019350505050602060405180830381600087803b1580156115cb57600080fd5b505af11580156115df573d6000803e3d6000fd5b505050506040513d60208110156115f557600080fd5b8101908080519060200190929190505050505b6000600660003373ffffffffffffffffffffffffffffffffffffffff1673ffffffffffffffffffffffffffffffffffffffff1681526020019081526020016000206000831515151581526020019081526020016000209050600081600001541461169b5760006116783384611a96565b9050611691818360020154611c0e90919063ffffffff16565b8260020181905550505b8281600001540181600001819055504381600101819055506000600460008415151515815260200190815260200160002054141561171a576116fe6001600560008515151515815260200190815260200160002054611c0e90919063ffffffff16565b6005600084151515158152602001908152602001600020819055505b61174483600460008515151515815260200190815260200160002054611c0e90919063ffffffff16565b6004600084151515158152602001908152602001600020819055503373ffffffffffffffffffffffffffffffffffffffff167fad15a93b7be3081f6da8943e0009c2a9216aabf536283a6335a55f396468978984846040518083815260200182151581526020019250505060405180910390a2505050565b60006117c83383611c96565b9050919050565b6117d76118b4565b73ffffffffffffffffffffffffffffffffffffffff1660008054906101000a900473ffffffffffffffffffffffffffffffffffffffff1673ffffffffffffffffffffffffffffffffffffffff1614611897576040517f08c379a00000000000000000000000000000000000000000000000000000000081526004018080602001828103825260208152602001807f4f776e61626c653a2063616c6c6572206973206e6f7420746865206f776e657281525060200191505060405180910390fd5b6118a081611d37565b50565b678ac7230489e8000081565b600181565b600033905090565b6000600660008473ffffffffffffffffffffffffffffffffffffffff1673ffffffffffffffffffffffffffffffffffffffff16815260200190815260200160002060008315151515815260200190815260200160002090504360016007028260010154011115611994576040517f08c379a000000000000000000000000000000000000000000000000000000000815260040180806020018281038252601e8152602001807f5374616b696e673a2043616e206e6f7420756e7374616b696e6720796574000081525060200191505060405180910390fd5b60006119a08484611c96565b90506119b9818360030154611c0e90919063ffffffff16565b8260030181905550600160009054906101000a900473ffffffffffffffffffffffffffffffffffffffff1673ffffffffffffffffffffffffffffffffffffffff166340c10f1985836040518363ffffffff1660e01b8152600401808373ffffffffffffffffffffffffffffffffffffffff16815260200182815260200192505050602060405180830381600087803b158015611a5457600080fd5b505af1158015611a68573d6000803e3d6000fd5b505050506040513d6020811015611a7e57600080fd5b81019080805190602001909291905050505050505050565b600080600660008573ffffffffffffffffffffffffffffffffffffffff1673ffffffffffffffffffffffffffffffffffffffff168152602001908152602001600020600084151515158152602001908152602001600020905060008060019050436001601e0284600101540111611b0c57600290505b600060046000871515151581526020019081526020016000205414611bb8578415611b765780600460008715151515815260200190815260200160002054606402604b66b1a2bc2ec5000086600101544303876000015402020281611b6d57fe5b04029150611bb7565b80600460008715151515815260200190815260200160002054606402601966b1a2bc2ec5000086600101544303876000015402020281611bb257fe5b040291505b5b81935050505092915050565b6000611c0683836040518060400160405280601e81526020017f536166654d6174683a207375627472616374696f6e206f766572666c6f770000815250611e7a565b905092915050565b600080828401905083811015611c8c576040517f08c379a000000000000000000000000000000000000000000000000000000000815260040180806020018281038252601b8152602001807f536166654d6174683a206164646974696f6e206f766572666c6f77000000000081525060200191505060405180910390fd5b8091505092915050565b600080600660008573ffffffffffffffffffffffffffffffffffffffff1673ffffffffffffffffffffffffffffffffffffffff16815260200190815260200160002060008415151515815260200190815260200160002090506000611cfb8585611a96565b9050611d2a8260030154611d1c846002015484611c0e90919063ffffffff16565b611bc490919063ffffffff16565b9050809250505092915050565b600073ffffffffffffffffffffffffffffffffffffffff168173ffffffffffffffffffffffffffffffffffffffff161415611dbd576040517f08c379a0000000000000000000000000000000000000000000000000000000008152600401808060200182810382526026815260200180611f3b6026913960400191505060405180910390fd5b8073ffffffffffffffffffffffffffffffffffffffff1660008054906101000a900473ffffffffffffffffffffffffffffffffffffffff1673ffffffffffffffffffffffffffffffffffffffff167f8be0079c531659141344cd1fd0a4f28419497f9722a3daafe3b4186f6b6457e060405160405180910390a3806000806101000a81548173ffffffffffffffffffffffffffffffffffffffff021916908373ffffffffffffffffffffffffffffffffffffffff16021790555050565b6000838311158290611f27576040517f08c379a00000000000000000000000000000000000000000000000000000000081526004018080602001828103825283818151815260200191508051906020019080838360005b83811015611eec578082015181840152602081019050611ed1565b50505050905090810190601f168015611f195780820380516001836020036101000a031916815260200191505b509250505060405180910390fd5b506000838503905080915050939250505056fe4f776e61626c653a206e6577206f776e657220697320746865207a65726f20616464726573735374616b696e673a2056657374696e67206973206e6f7420617661696c61626c6520796574a264697066735822122078564863a8e34588692309a6012200c0687eae19c8ed1bae631bc33c4baa5e1964736f6c634300060c0033",
  "immutableReferences": {},
  "source": "// SPDX-License-Identifier: MIT\npragma solidity >=0.6.0 <0.8.0;\n\nimport \"./interfaces/ITryBit.sol\";\nimport \"./utils/Context.sol\";\nimport \"./utils/SafeMath.sol\";\nimport \"./utils/Ownable.sol\";\n\ncontract Staking is Context, Ownable {\n    using SafeMath for uint256;\n\n    address public tBit;\n    address public lpToken;\n    // uint256 public SECONDS_IN_A_DAY = 28800;\n    uint256 constant public SECONDS_IN_A_DAY = 1;\n    uint256 constant public STAKING_DAYS_MIN = 7;\n    uint256 constant public STAKING_DAYS_REWARD = 30;\n    uint256 constant public STAKING_AMOUNT_MIN = 10000000000000000000; //10\n    uint256 constant public VESTING_PERIOD = 60;\n    uint256 constant public VESTING_AMOUNT = 100000000000000000000000; //100000\n    // uint256 constant public REWARD_PER_DAY = 5000000000000000000000; //5000\n    uint256 constant public REWARD_PER_DAY = 50000000000000000; //0.05\n\n    uint256 public vestingStart;\n    mapping(bool => uint256) public totalStakingAmount;\n    mapping(bool => uint256) public totalStakers;\n\n    struct DepositInfo {\n        uint256 amount;\n        uint256 time;\n        uint256 rewards;\n        uint256 claimed;\n    }\n\n    mapping (address => mapping(bool => DepositInfo)) public userInfo;\n    event Staking(address indexed sender, uint amount, bool isLpToken);\n\n\n    constructor(\n        address _tBit,\n        address _lpToken\n    ) public {\n        tBit = _tBit;\n        lpToken = _lpToken;\n        vestingStart = block.number;\n    }\n\n    function stake(uint256 amount, bool isLpToken) external {\n        require(amount >= STAKING_AMOUNT_MIN, 'Staking: Invalid Staking Amount');\n        if (isLpToken) {\n            IBEP20(lpToken).transferFrom(msg.sender, address(this), amount);\n        } else {\n            ITryBit(tBit).transferFrom(msg.sender, address(this), amount);\n        }\n\n        DepositInfo storage depositInfo = userInfo[msg.sender][isLpToken];\n        if (depositInfo.amount != 0) {\n            uint256 _reward = _checkReward(msg.sender, isLpToken);\n            depositInfo.rewards = (depositInfo.rewards).add(_reward);\n        }\n        \n        depositInfo.amount = depositInfo.amount + amount;\n        depositInfo.time = block.number;\n\n        if (totalStakingAmount[isLpToken] == 0) {\n            totalStakers[isLpToken] = totalStakers[isLpToken].add(1);\n        }\n\n        totalStakingAmount[isLpToken] = totalStakingAmount[isLpToken].add(amount);\n\n        emit Staking(msg.sender, amount, isLpToken);\n    }\n\n    function _checkReward(address staker, bool isLpToken) internal view returns (uint256) {\n        DepositInfo storage depositInfo = userInfo[staker][isLpToken];\n        \n        uint256 reward;\n        uint256 rewardFactor = 1;\n        if ( depositInfo.time + STAKING_DAYS_REWARD * SECONDS_IN_A_DAY <= block.number) {\n            rewardFactor = 2;               //should be updated\n        }\n        \n        if (totalStakingAmount[isLpToken] != 0) {\n            if (isLpToken) {\n                reward = depositInfo.amount * (block.number - depositInfo.time) * REWARD_PER_DAY * 75 / (100 * totalStakingAmount[isLpToken]) * rewardFactor;\n            }\n            else {\n                reward = depositInfo.amount * (block.number - depositInfo.time) * REWARD_PER_DAY * 25 / (100 * totalStakingAmount[isLpToken]) * rewardFactor;\n            }\n        }\n        return reward;\n    }\n\n    function checkReward(bool isLpToken) public view returns (uint256) {\n        return _checkReward(msg.sender, isLpToken);\n    }\n\n    function _getPending(address staker, bool isLpToken) internal view returns (uint256) {\n        DepositInfo storage depositInfo = userInfo[staker][isLpToken];\n        uint256 pending = _checkReward(staker, isLpToken);\n        pending = pending.add(depositInfo.rewards).sub(depositInfo.claimed);\n        return pending;\n    }\n\n    function getPending(bool isLpToken) external view returns (uint256) {\n        return _getPending(msg.sender, isLpToken);\n    }\n\n    function _claim(address staker, bool isLpToken) internal {\n        DepositInfo storage depositInfo = userInfo[staker][isLpToken];\n        require(depositInfo.time + STAKING_DAYS_MIN * SECONDS_IN_A_DAY <= block.number, 'Staking: Can not unstaking yet');\n        uint256 pending = _getPending(staker, isLpToken);\n        depositInfo.claimed = depositInfo.claimed.add(pending);\n        ITryBit(tBit).mint(staker, pending);\n    }\n\n    function claim(bool isLpToken) external {\n        _claim(msg.sender, isLpToken);\n    }\n\n    function unstake(uint256 amount, bool isLpToken) external {\n        DepositInfo storage depositInfo = userInfo[msg.sender][isLpToken];\n        require(depositInfo.amount >= amount, \"Staking: Insufficient Amount\");\n        require(depositInfo.time + STAKING_DAYS_MIN * SECONDS_IN_A_DAY <= block.number, 'Staking: Can not unstaking yet');\n        \n        if (isLpToken) {\n            IBEP20(lpToken).transfer(msg.sender, amount);\n        } else {\n            ITryBit(tBit).transfer(msg.sender, amount);\n        }\n\n        _claim(msg.sender, isLpToken);\n        \n        totalStakingAmount[isLpToken] = totalStakingAmount[isLpToken].sub(amount);\n\n        if (totalStakingAmount[isLpToken] == 0) {\n            totalStakers[isLpToken] = totalStakers[isLpToken].sub(1);\n        }\n\n        depositInfo.amount = depositInfo.amount.sub(amount);   \n    }\n\n    function withdrawToken(uint amount, bool isLpToken) external onlyOwner {\n        if (isLpToken) {\n            IBEP20(lpToken).transfer(msg.sender, amount);\n        } else {\n            ITryBit(tBit).transfer(msg.sender, amount);\n        }\n    }\n\n    function setTBIT(address _tBit) external onlyOwner {\n        tBit = _tBit;\n    }\n\n    function setLPToken(address _lpToken) external onlyOwner {\n        lpToken = _lpToken;\n    }\n\n    function withdrawLiquidity(address to) external onlyOwner {\n        require(vestingStart + VESTING_PERIOD * SECONDS_IN_A_DAY <= block.number, 'Staking: Vesting is not available yet');\n        ITryBit(tBit).transfer(to, VESTING_AMOUNT);\n    }\n}\n",
  "sourcePath": "/home/ubuntu/dev/tbit/TryBitNFt-contracts/contracts/Staking.sol",
  "compiler": {
    "name": "solc",
    "version": "0.6.12+commit.27d51765.Emscripten.clang"
  },
  "schemaVersion": "3.3.3",
  "updatedAt": "2021-07-08T18:45:53.224Z",
  "networkType": "ethereum",
  "devdoc": {
    "kind": "dev",
    "methods": {
      "owner()": {
        "details": "Returns the address of the current owner."
      },
      "renounceOwnership()": {
        "details": "Leaves the contract without owner. It will not be possible to call `onlyOwner` functions anymore. Can only be called by the current owner. NOTE: Renouncing ownership will leave the contract without an owner, thereby removing any functionality that is only available to the owner."
      },
      "transferOwnership(address)": {
        "details": "Transfers ownership of the contract to a new account (`newOwner`). Can only be called by the current owner."
      }
    },
    "version": 1
  },
  "userdoc": {
    "kind": "user",
    "methods": {},
    "version": 1
  }
}